:100000000C9434000C9451000C9451000C94510049
:100010000C9451000C9451000C9451000C9451001C
:100020000C9451000C9451000C9451000C9451000C
:100030000C9451000C9451000C9451000C945100FC
:100040000C9451000C9451000C9451000C945100EC
:100050000C9451000C9451000C9451000C945100DC
:100060000C9451000C94510011241FBECFEFD4E02A
:10007000DEBFCDBF12E0A0E0B1E0E2E2F1E102C0FC
:1000800005900D92A037B107D9F712E0A0E7B2E0D2
:1000900001C01D92A13BB107E1F70E9437050C9406
:1000A0008F080C9400002D9A2FEF81EE94E02150E0
:1000B00080409040E1F700C000002D982FEF81EEC6
:1000C00094E0215080409040E1F700C00000089586
:1000D0002D9A2FEF80E792E0215080409040E1F789
:1000E00000C000002D982FEF80E792E02150804063
:1000F0009040E1F700C000002D9A2FEF80E792E0DA
:10010000215080409040E1F700C000002D982FEF73
:1001100080E792E0215080409040E1F700C000006D
:100120002D9A2FEF80E792E0215080409040E1F738
:1001300000C000002D982FEF80E792E02150804012
:100140009040E1F700C0000008952D982FEF80E760
:1001500092E0215080409040E1F700C000002D9ACD
:100160002FEF80E792E0215080409040E1F700C0FF
:1001700000002D980895DF92EF92FF920F931F9346
:10018000CF93DF93CDB7DEB760970FB6F894DEBF9D
:100190000FBECDBF81E00E9407021F928F9385E0C2
:1001A00091E09F938F9300E712E01F930F930E94BB
:1001B000B705C8010E94150582E00E9407021F9240
:1001C0008F9385E191E09F938F931F930F930E94EC
:1001D000B705C8010E94150583E00E9407021F921F
:1001E0008F9389E291E09F938F931F930F930E94C7
:1001F000B705C8010E94150584E00E9407021F92FE
:100200008F938CE391E09F938F931F930F930E94A2
:10021000B705C8010E94150585E00E9407021F92DC
:100220008F9381E591E09F938F931F930F930E948B
:10023000B705C8010E94150586E00E9407021F92BB
:100240008F9381E691E09F938F931F930F930E946A
:10025000B7050FB6F894DEBF0FBECDBFC8010E9430
:10026000150587E00E9407021F928F9384E791E0B3
:100270009F938F931F930F930E94B705C8010E940D
:10028000150580E1D82EEE24E394F12CEC0EFD1E32
:10029000F7018D2D11928A95E9F745E0B70180E1CC
:1002A0000E944C028D811F928F938C811F928F939D
:1002B0008B811F928F938A811F928F9389811F92C6
:1002C0008F9385E891E09F938F931F930F930E94E4
:1002D000B705C8010E941505F7018D2D11928A9569
:1002E000E9F745E0B7018AE00E944C028D811F9238
:1002F0008F938C811F928F938B811F928F938A8112
:100300001F928F9389811F928F9383EB91E09F932C
:100310008F931F930F930E94B7050FB6F894DEBF1B
:100320000FBECDBFC8010E941505F7011192DA94E6
:10033000E9F745E0B7018BE00E944C028D811F92E6
:100340008F938C811F928F938B811F928F938A81C1
:100350001F928F9389811F928F9384EE91E09F93D8
:100360008F931F930F930E94B705C8010E94150534
:100370000FB6F894DEBF0FBECDBF60960FB6F894EF
:10038000DEBF0FBECDBFDF91CF911F910F91FF90C8
:10039000EF90DF9008952FEF8BE792E92150804096
:1003A0009040E1F700C000000E9453002FEF81EE63
:1003B00094E0215080409040E1F700C000000E948E
:1003C00053002FEF81EE94E0215080409040E1F700
:1003D00000C000000E94530039985298389A3A9A07
:1003E0003C9A3D9A87E690E00E9403058BE092E0FC
:1003F0000E9415050E94A9022FEF80E792E021508C
:1004000080409040E1F700C000000C94BB0095E3F1
:100410009A95F1F70000459895E39A95F1F7000059
:100420008F710E94D90485E38A95F1F700008FEF60
:100430000E94D90495E39A95F1F70000459A95E357
:100440009A95F1F700000895CF93DF931F92CDB7EF
:10045000DEB795E39A95F1F700004598E5E3EA9554
:10046000F1F700008F71806269830E94D904F5E37F
:10047000FA95F1F700006981862F0E94D90485E37F
:100480008A95F1F70000459A95E39A95F1F70000F7
:100490000F90DF91CF9108950F931F93CF93DF9328
:1004A0001F92CDB7DEB78B0195E39A95F1F7000067
:1004B0004598E5E3EA95F1F700008F7149830E94C2
:1004C000D904F5E3FA95F1F70000498150E0B8014D
:1004D000C8010E94DB0485E38A95F1F70000459A84
:1004E00095E39A95F1F700000F90DF91CF911F915E
:1004F0000F9108950F931F93CF93DF931F92CDB762
:10050000DEB78B0195E39A95F1F700004598E5E396
:10051000EA95F1F700008F71806249830E94D90447
:10052000F5E3FA95F1F70000498150E0B801C80100
:100530000E94DB0485E38A95F1F70000459A95E374
:100540009A95F1F700000F90DF91CF911F910F91D5
:100550000895CF93DF9300D000D01F92CDB7DEB7C0
:1005600085E38A95F1F70000349885E38A95F1F7E1
:10057000000085E38A95F1F70000459A85E38A95A6
:10058000F1F7000061E081E00E9424026FE384E063
:100590000E94240261E082E00E94240263E083E082
:1005A0000E94240263E085E00E94240266E086E067
:1005B0000E94240285E0E0E0F1E0DE011196019066
:1005C0000D928A95E1F745E0BE016F5F7F4F8AE0AB
:1005D0000E947A0268E081E10E94240260E487E0E0
:1005E0000E94240260E287E00E94240260E187E02A
:1005F0000E9424021092B0028091B0028860809321
:10060000B0028091B00284608093B0028091B00209
:1006100081608093B0026091B002626080E00E94CD
:1006200024020F900F900F900F900F90DF91CF91B9
:10063000089585E38A95F1F70000459895E39A952A
:10064000F1F700008FEF0E94D90495E39A95F1F736
:100650000000459A95E39A95F1F70000807408959B
:100660000F931F93CF93DF931F92CDB7DEB78C010B
:1006700085E38A95F1F700004598E5E3EA95F1F7FF
:10068000000081E669830E94D904F5E3FA95F1F749
:100690000000498150E0B801C8010E94DB0485E3F5
:1006A0008A95F1F70000459AE5E3EA95F1F7000035
:1006B00060E487E00E942402F5E3FA95F1F7000078
:1006C000459885E38A95F1F7000081EE0E94D904F0
:1006D000E5E3EA95F1F70000459AF5E3FA95F1F7BD
:1006E00000000F90DF91CF911F910F91089585E346
:1006F0008A95F1F70000459895E39A95F1F7000087
:100700008FEF0E94D90495E39A95F1F70000459A7E
:1007100095E39A95F1F7000080710895EF92FF92AA
:100720000F931F93CF93DF93CDB7DEB72A970FB602
:10073000F894DEBF0FBECDBF8C01E62E25E32A95CF
:10074000F1F70000459885E38A95F1F7000081EE06
:100750000E94D90495E39A95F1F70000459A25E3A4
:100760002A95F1F7000085E38A95F1F70000459896
:1007700095E39A95F1F7000082EE0E94D90425E3F3
:100780002A95F1F70000459A85E38A95F1F7000074
:1007900060E387E00E94240261E081E00E9424027D
:1007A00085E0E0E0F1E0DE01169601900D928A9579
:1007B000E1F745E0BE016A5F7F4F80E10E947A0267
:1007C00085E0E0E0F1E0DE01119601900D928A955E
:1007D000E1F745E0BE016F5F7F4F8AE00E947A0239
:1007E00095E39A95F1F70000459825E32A95F1F7EE
:1007F000000080EA0E94D90485E38A95F1F70000A1
:100800004E2D50E0B801C8010E94DB0495E39A9593
:10081000F1F70000459A25E32A95F1F70000909141
:10082000B0029E7F9093B0026091B00280E00E947F
:10083000240285E38A95F1F700006091B0026260BE
:1008400080E00E9424029FEF21EE84E0915020403E
:100850008040E1F700C0000095E39A95F1F70000B1
:10086000349A25E32A95F1F7000002E310E087E0CF
:100870000E94070284FF07C060E187E00E94240213
:10088000FF24F39411C085FF06C060E287E00E9458
:100890002402F12C09C08FE39CE90197F1F700C015
:1008A00000000150110919F795E39A95F1F700003E
:1008B000349825E32A95F1F700009091B0029160F9
:1008C0009093B0026091B0026D7F80E00E9424029C
:1008D00085E38A95F1F700006091B002626080E0E4
:1008E0000E9424029FEF21EE84E09150204080403E
:1008F000E1F700C000008F2D2A960FB6F894DEBFF6
:100900000FBECDBFDF91CF911F910F91FF90EF9060
:100910000895482F20E030E080E050E061E070E092
:10092000E22FDA01022E02C0B595A7950A94E2F7EC
:10093000A0FF02C0409A01C0409842980000319B3D
:1009400007C0DB0102C0AA0FBB1FEA95E2F78A2BA2
:10095000429A00002F5F3F4F2830310509F7429837
:1009600000000895482F27E030E080E050E061E08B
:1009700070E0E22FDA01022E02C0B595A7950A9425
:10098000E2F7A0FF02C0409A01C0409842980000E0
:10099000319B07C0DB0102C0AA0FBB1FEA95E2F73B
:1009A0008A2B429A00002150310918F74298000022
:1009B00008950C94B204BF92CF92DF92EF92FF920F
:1009C0000F931F93CF93DF938C016B017A01B12CAE
:1009D0000BC0E601C20FD31FF801E20FF31F8081A5
:1009E0000E94B2048883B3942B2D30E02E153F056E
:1009F00084F3DF91CF911F910F91FF90EF90DF90E3
:100A0000CF90BF9008959093C5008093C40088E173
:100A10008093C10086E08093C20008959091C00049
:100A200095FFFCCF8093C6000895EF92FF920F933D
:100A30001F93CF93DF93EC0109900020E9F72197F2
:100A4000C81BD90B8C017C0105C0F70181917F0186
:100A50000E940E05C701801B910B8C179D07ACF3FC
:100A6000DF91CF911F910F91FF90EF900895CF9359
:100A7000DF93CDB7DEB728970FB6F894DEBF0FBE71
:100A8000CDBF0E94CB0125E32A95F1F70000349AEF
:100A900085E38A95F1F7000028E0922EEE24E39496
:100AA000F12CEC0EFD1E45E3C42E42E0D42E50E79F
:100AB000A52E52E0B52E82E192E00E9415050E941B
:100AC000A5009FEFE3EDF0E39150E040F040E1F747
:100AD00000C000004A9946C085E292E00E941505D8
:100AE000F701292D11922A95E9F768E0C7010E94C4
:100AF000300388851F928F938F811F928F938E81F1
:100B00001F928F938D811F928F938C811F928F9351
:100B10008B811F928F938A811F928F9389811F925D
:100B20008F93DF92CF92BF92AF920E94B70580E77A
:100B300092E00E9415050FB6F894DEBF0FBECDBF40
:100B40000BE010E00BC00E94A5009FEFE0E7F2E091
:100B50009150E040F040E1F700C000000150110961
:100B600091F7A9CF84E692E00E941505A4CFA0E1F9
:100B7000B0E0EDEBF5E00C9466080F89188D86E087
:100B80008C831A8309838FEF9FE79E838D83AE0149
:100B9000455E5F4F588B4F87698D7A8DCE010196E8
:100BA0000E94DB05EF81F885E00FF11F108260964F
:100BB000E4E00C948208ACE0B0E0E1EEF5E00C94E7
:100BC00058087C016B018A01FC011782168283811F
:100BD00081FFC7C188248394912C8C0E9D1EF70140
:100BE0009381F60193FD859193FF81916F01882395
:100BF00009F4B3C1853239F493FD859193FF819156
:100C00006F01853229F4B70190E00E94CE07E7CF4B
:100C1000712C312C20E02032A8F48B3261F028F4C2
:100C2000803251F0833271F40BC08D3239F0803351
:100C300049F4216028C02260246025C0286023C0B8
:100C4000206121C027FD27C0382F30533A3078F477
:100C500026FF06C0FAE07F9E300D1124732E13C0CC
:100C60008AE0389E300D1124332E20620CC08E3263
:100C700021F426FD72C1206406C08C3611F4206870
:100C800002C0883641F4F60193FD859193FF81916E
:100C90006F018111C0CF982F9554933018F0905266
:100CA000933028F40C5F1F4FFFE3F9830DC08336A8
:100CB00031F0833771F0833509F05EC023C0F8014D
:100CC000808189830E5F1F4F66246394712C5401C9
:100CD00015C02801F2E04F0E511CF801A080B18030
:100CE00026FF03C0672D70E002C06FEF7FEFC501E4
:100CF0002C870E94C3073C0182012C856FE7262EBA
:100D0000222218C02801F2E04F0E511CF801A080E9
:100D1000B18026FF03C0672D70E002C06FEF7FEF48
:100D2000C5012C870E94B8073C012C8550E8252E70
:100D3000222A820123FC1CC006C0B70180E290E099
:100D40000E94CE073A94832D90E068167906A8F3A6
:100D50000FC0F50127FC859127FE81915F01B70146
:100D600090E00E94CE0731103A94F1E06F1A7108BA
:100D70006114710471F7EEC0843611F0893641F5C3
:100D8000F80127FF07C060817181828193810C5F28
:100D90001F4F08C060817181882777FD8095982F4B
:100DA0000E5F1F4F4FE6642E622297FF09C0909599
:100DB0008095709561957F4F8F4F9F4FF0E86F2A18
:100DC0002AE030E0A4010E94FA07A82EA81844C027
:100DD000853731F43FEEB32EB2222AE030E024C052
:100DE00099EFB92EB2228F36B9F020F4883509F088
:100DF000B4C00DC0803721F0883709F0AEC002C002
:100E000020E1B22AB4FE0BC084E0B82A08C024FF57
:100E100009C0E6E0BE2A06C028E030E005C020E1B7
:100E200030E002C020E132E0F801B7FE07C0608187
:100E30007181828193810C5F1F4F06C06081718137
:100E400080E090E00E5F1F4FA4010E94FA07A82ED9
:100E5000A8188FE7682E6B2066FE0BC0362D3E7FEC
:100E6000A71450F464FE0AC062FC08C0362D3E7E12
:100E700005C0BA2C362D03C0BA2C01C0B72C34FFE4
:100E80000DC0FE01EA0DF11D8081803311F4397E21
:100E900009C032FF06C0B394B39404C0832F867890
:100EA00009F0B39433FD14C030FF0FC07A2CB31493
:100EB00060F4730C7B18B32C08C0B70180E290E09B
:100EC0003C870E94CE07B3943C85B314B0F304C0B2
:100ED000B31410F43B1801C0312C34FF12C0B70119
:100EE00080E390E03C870E94CE073C8532FF1EC025
:100EF00031FF03C088E590E002C088E790E0B701C9
:100F00000CC0832F867891F031FD02C080E201C0D1
:100F10008BE237FD8DE2B70190E00E94CE0706C05C
:100F2000B70180E390E00E94CE077A94A714C0F343
:100F3000AA94F401EA0DF11DB701808190E00E94AE
:100F4000CE07A110F5CF06C0B70180E290E00E9465
:100F5000CE073A943110F8CF42CEF701268137817F
:100F600002C02FEF3FEFC9012C96E2E10C94740808
:100F7000FC010590615070400110D8F78095909564
:100F80008E0F9F1F0895FC01615070400190011069
:100F9000D8F7809590958E0F9F1F08950F931F93FC
:100FA000CF93DF938C01EB018B8181FD03C00FEFA9
:100FB0001FEF1AC082FF0DC02E813F818C819D8161
:100FC0002817390764F4E881F9810193F983E883EC
:100FD00006C0E885F985802F0995892B41F78E8118
:100FE0009F8101969F838E83C801DF91CF911F91CE
:100FF0000F910895FA01AA27283051F1203181F18B
:10100000E8946F936E7F6E5F7F4F8F4F9F4FAF4F10
:10101000B1E03ED0B4E03CD0670F781F891F9A1F23
:10102000A11D680F791F8A1F911DA11D6A0F711DD7
:10103000811D911DA11D20D009F468943F912AE0E3
:10104000269F11243019305D3193DEF6CF010895CB
:10105000462F4770405D4193B3E00FD0C9F7F6CFFC
:10106000462F4F70405D4A3318F0495D31FD4052C4
:10107000419302D0A9F7EACFB4E0A695979587955A
:1010800077956795BA95C9F7009761057105089539
:101090009B01AC010A2E06945795479537952795E5
:1010A000BA95C9F7620F731F841F951FA01D08957D
:1010B0002F923F924F925F926F927F928F929F9268
:1010C000AF92BF92CF92DF92EF92FF920F931F9356
:1010D000CF93DF93CDB7DEB7CA1BDB0B0FB6F89407
:1010E000DEBF0FBECDBF09942A88398848885F8447
:1010F0006E847D848C849B84AA84B984C884DF80B8
:10110000EE80FD800C811B81AA81B981CE0FD11D9B
:101110000FB6F894DEBF0FBECDBFED010895F89471
:02112000FFCFFF
:10112200F2F2F2F2F2454E5F41413A203078253038
:1011320032780A0D00454E5F5258414444523A20DB
:101142003078253032780A0D0053455455505F41AE
:10115200573A203078253032780A0D0053455455DD
:10116200505F524554523A203078253032780A0D79
:101172000052465F43483A203078253032780A0DD3
:101182000052465F53455455503A2030782530324C
:10119200780A0D005374617475733A2030782530E3
:1011A20032780A0D0054585F414444523A20307854
:1011B200253032782030782530327820307825304A
:1011C20032782030782530327820307825303278E5
:1011D2000A0D0052585F414444525F50303A203069
:1011E20078253032782030782530327820307825D2
:1011F20030327820307825303278203078253032FD
:10120200780A0D0052585F414444525F50313A20EF
:10121200253032782025303278202530327820254A
:1012220030327820253032780A0D00426567696EC7
:101232000A00524543454956494E472044415441CC
:101242002E2E2E0A0054484552452049532044412F
:101252005441210A00444154413A20253032782039
:1012620025303278202530327820253032782025FA
:1012720030327820253032782025303278202530DF
:1012820032780A004E4F20444154412E2E2E0A003D
:00000001FF
