:100000000C9434000C9453000C9451000C94510047
:100010000C9451000C9451000C9451000C9451001C
:100020000C9451000C9451000C9451000C9451000C
:100030000C9451000C9451000C9451000C945100FC
:100040000C9451000C9451000C9451000C945100EC
:100050000C9451000C9451000C9451000C945100DC
:100060000C9451000C94510011241FBECFEFD4E02A
:10007000DEBFCDBF12E0A0E0B1E0E0E3F1E102C0FD
:1000800005900D92A236B107D9F712E0A2E6B2E0D0
:1000900001C01D92A33AB107E1F70E948F050C94AD
:1000A00096080C9400001F920F920FB60F92112425
:1000B0002F933F934F935F936F937F938F939F9370
:1000C000AF93BF93EF93FF93CF93DF93CDB7DEB79B
:1000D0002897DEBFCDBF8DE091E00E946D0568E0FE
:1000E000CE0101960E94AC0388851F928F938F8169
:1000F0001F928F938E811F928F938D811F928F936A
:100100008C811F928F938B811F928F938A811F9274
:100110008F9389811F928F938DE191E09F938F93AD
:1001200082E692E09F938F930E94BE0582E692E062
:100130000E946D050FB6F894DEBF0FBECDBF2896A6
:100140000FB6F894DEBF0FBECDBFDF91CF91FF9108
:10015000EF91BF91AF919F918F917F916F915F913F
:100160004F913F912F910F900FBE0F901F901895B8
:100170002D9A2FEF81EE94E0215080409040E1F7DE
:1001800000C000002D982FEF81EE94E021508040B8
:100190009040E1F700C0000008952D9A2FEF80E70E
:1001A00092E0215080409040E1F700C000002D987F
:1001B0002FEF80E792E0215080409040E1F700C0AF
:1001C00000002D9A2FEF80E792E021508040904070
:1001D000E1F700C000002D982FEF80E792E021505A
:1001E00080409040E1F700C000002D9A2FEF80E79B
:1001F00092E0215080409040E1F700C000002D982F
:100200002FEF80E792E0215080409040E1F700C05E
:10021000000008952D982FEF80E792E02150804054
:100220009040E1F700C000002D9A2FEF80E792E0A8
:10023000215080409040E1F700C000002D980895C3
:10024000DF92EF92FF920F931F93CF93DF93CDB77F
:10025000DEB760970FB6F894DEBF0FBECDBF81E06A
:100260000E9469021F928F938CE491E09F938F9379
:1002700002E612E01F930F930E94BE05C8010E9480
:100280006D0582E00E9469021F928F938BE591E0D9
:100290009F938F931F930F930E94BE05C8010E94E6
:1002A0006D0583E00E9469021F928F938EE691E0B4
:1002B0009F938F931F930F930E94BE05C8010E94C6
:1002C0006D0584E00E9469021F928F9380E891E09F
:1002D0009F938F931F930F930E94BE05C8010E94A6
:1002E0006D0585E00E9469021F928F9384E991E079
:1002F0009F938F931F930F930E94BE05C8010E9486
:100300006D0586E00E9469021F928F9383EA91E057
:100310009F938F931F930F930E94BE050FB6F8947F
:10032000DEBF0FBECDBFC8010E946D0587E00E94F1
:1003300069021F928F9385EB91E09F938F931F9398
:100340000F930E94BE05C8010E946D0580E1D82E62
:10035000EE24E394F12CEC0EFD1EF7018D2D11928D
:100360008A95E9F745E0B70180E10E9403038D819A
:100370001F928F938C811F928F938B811F928F93EB
:100380008A811F928F9389811F928F9385EC91E0D0
:100390009F938F931F930F930E94BE05C8010E94E5
:1003A0006D05F7018D2D11928A95E9F745E0B701AA
:1003B0008AE00E9403038D811F928F938C811F928C
:1003C0008F938B811F928F938A811F928F93898144
:1003D0001F928F9382EF91E09F938F931F930F93C0
:1003E0000E94BE050FB6F894DEBF0FBECDBFC80198
:1003F0000E946D05F7011192DA94E9F745E0B70123
:100400008BE00E9403038D811F928F938C811F923A
:100410008F938B811F928F938A811F928F938981F3
:100420001F928F9382E292E09F938F931F930F937B
:100430000E94BE05C8010E946D050FB6F894DEBF8C
:100440000FBECDBF60960FB6F894DEBF0FBECDBF16
:10045000DF91CF911F910F91FF90EF90DF90089562
:100460002FEF8BE792E9215080409040E1F700C0E8
:1004700000000E94B8002FEF81EE94E021508040F0
:100480009040E1F700C000000E94B8002FEF81EE1D
:1004900094E0215080409040E1F700C000000E94AD
:1004A000B80039985298389A3A9A3C9A3D9AE9E6B7
:1004B000F0E0808184608083E89A87E690E00E9483
:1004C0005B0588E492E00E946D050E94B2020C94E4
:1004D000200195E39A95F1F70000459895E39A95E8
:1004E000F1F700008F710E94310585E38A95F1F7DD
:1004F00000008FEF0E94310595E39A95F1F7000017
:10050000459A95E39A95F1F7000008951F93CF93CC
:10051000DF931F92CDB7DEB795E39A95F1F7000010
:100520004598E5E3EA95F1F700008F7180626983F1
:100530000E943105182FF5E3FA95F1F70000698163
:10054000862F0E94310585E38A95F1F70000459AD0
:1005500095E39A95F1F70000812F0F90DF91CF91ED
:100560001F91089585E38A95F1F70000349885E39B
:100570008A95F1F7000085E38A95F1F70000459A26
:1005800085E38A95F1F7000061E081E00E94860230
:100590006FE384E00E94860261E082E00E948602AE
:1005A00063E083E00E94860261E085E00E948602AB
:1005B00066E286E00E94860268E081E10E9486028F
:1005C00060E487E00E94860260E287E00E94860283
:1005D00060E187E00E9486021092A2028091A2024E
:1005E00088608093A2028091A20284608093A2021C
:1005F0008091A20281608093A2026091A202626057
:1006000080E00C948602EF92FF921F93CF93DF93CA
:100610001F92CDB7DEB77B0195E39A95F1F7000005
:100620004598E5E3EA95F1F700008F7149830E9450
:100630003105182FF5E3FA95F1F70000498150E0F4
:10064000B701C7010E94330585E38A95F1F70000E1
:10065000459A95E39A95F1F70000812F0F90DF916D
:10066000CF911F91FF90EF900895CF92DF92EF927C
:10067000FF920F931F93CF93DF93CDB7DEB7C82EB2
:10068000D42EEDB6FEB68DB79EB7841B91090FB67A
:10069000F8949EBF0FBE8DBF0DB71EB70F5F1F4FE3
:1006A00050E0C8010E94B50595E39A95F1F7000066
:1006B000459885E38A95F1F700008C2D8F71806253
:1006C0000E943105C82E95E39A95F1F700004D2D53
:1006D00050E0B801C8010E94330585E38A95F1F71F
:1006E0000000459A95E39A95F1F700008C2D0FB61E
:1006F000F894FEBE0FBEEDBEDF91CF911F910F911A
:10070000FF90EF90DF90CF90089545E0BC018AE024
:100710000E94350385E38A95F1F70000349A85E35A
:100720008A95F1F700007894089585E38A95F1F7AA
:100730000000459895E39A95F1F700008FEF0E942D
:10074000310595E39A95F1F70000459A95E39A955E
:10075000F1F70000807408950F931F93CF93DF93F8
:100760001F92CDB7DEB78C0185E38A95F1F70000C3
:100770004598E5E3EA95F1F7000081E669830E9478
:100780003105F5E3FA95F1F70000498150E0B80131
:10079000C8010E94330585E38A95F1F70000459A68
:1007A000E5E3EA95F1F7000060E487E00E94860245
:1007B000F5E3FA95F1F70000459885E38A95F1F79E
:1007C000000081EE0E943105E5E3EA95F1F70000B3
:1007D000459AF5E3FA95F1F700000F90DF91CF917C
:1007E0001F910F91089585E38A95F1F700004598D0
:1007F00095E39A95F1F700008FEF0E94310595E39C
:100800009A95F1F70000459A95E39A95F1F7000063
:1008100080710895EF92FF920F931F93CF93DF9310
:10082000EC018B01E42E25E32A95F1F700004598B1
:1008300085E38A95F1F7000081EE0E94310595E38A
:100840009A95F1F70000459A25E32A95F1F7000003
:1008500085E38A95F1F70000459895E39A95F1F7BD
:10086000000082EE0E94310525E32A95F1F7000091
:10087000459A85E38A95F1F7000060E387E00E94DE
:10088000860261E081E00E94860245E0BE0180E1CF
:100890000E94350345E0BE018AE00E94350395E3DE
:1008A0009A95F1F70000459825E32A95F1F70000A5
:1008B00080EA0E94310585E38A95F1F700004E2D0C
:1008C00050E0B801C8010E94330595E39A95F1F70D
:1008D0000000459A25E32A95F1F700009091A202C5
:1008E0009E7F9093A2026091A20280E00E94860205
:1008F00085E38A95F1F700006091A202626080E0D2
:100900000E9486029FEF21EE84E0915020408040BB
:10091000E1F700C0000095E39A95F1F70000349AE2
:1009200025E32A95F1F70000C2E3D0E087E00E94BA
:10093000690284FF07C060E187E00E948602FF240D
:10094000F39410C085FF06C060E287E00E94860233
:10095000F12C08C08FE39CE90197F1F700C000007B
:10096000219721F795E39A95F1F70000349825E354
:100970002A95F1F700009091A20291609093A20253
:100980006091A2026D7F80E00E94860285E38A95D5
:10099000F1F700006091A202626080E00E9486028E
:1009A0009FEF21EE84E0915020408040E1F700C0AD
:1009B00000008F2DDF91CF911F910F91FF90EF904D
:1009C0000895482F20E030E080E050E061E070E0E2
:1009D000E22FDA01022E02C0B595A7950A94E2F73C
:1009E000A0FF02C0409A01C0409842980000319B8D
:1009F00007C0DB0102C0AA0FBB1FEA95E2F78A2BF2
:100A0000429A00002F5F3F4F2830310509F7429886
:100A100000000895482F27E030E080E050E061E0DA
:100A200070E0E22FDA01022E02C0B595A7950A9474
:100A3000E2F7A0FF02C0409A01C04098429800002F
:100A4000319B07C0DB0102C0AA0FBB1FEA95E2F78A
:100A50008A2B429A00002150310918F74298000071
:100A600008950C940A05BF92CF92DF92EF92FF9205
:100A70000F931F93CF93DF938C016B017A01B12CFD
:100A80000BC0E601C20FD31FF801E20FF31F8081F4
:100A90000E940A058883B3942B2D30E02E153F0564
:100AA00084F3DF91CF911F910F91FF90EF90DF9032
:100AB000CF90BF9008959093C5008093C40088E1C3
:100AC0008093C10086E08093C20008959091C00099
:100AD00095FFFCCF8093C6000895EF92FF920F938D
:100AE0001F93CF93DF93EC0109900020E9F7219742
:100AF000C81BD90B8C017C0105C0F70181917F01D6
:100B00000E946605C701801B910B8C179D07ACF3F3
:100B1000DF91CF911F910F91FF90EF900895CF93A8
:100B2000DF9300D000D01F92CDB7DEB70E94300215
:100B300085E0E0E0F1E0DE01119601900D928A95EA
:100B4000E1F7CE0101960E9485038FE492E00E94B6
:100B50006D050E940A012FEF83ED90E32150804044
:100B60009040E1F700C00000F0CFFB01DC0102C0C3
:100B700001900D9241505040D8F70895A0E1B0E0A7
:100B8000E4ECF5E00C946D080F89188D86E08C83F9
:100B90001A8309838FEF9FE79E838D83AE01455EA5
:100BA0005F4F588B4F87698D7A8DCE0101960E94D9
:100BB000E205EF81F885E00FF11F10826096E4E016
:100BC0000C948908ACE0B0E0E8EEF5E00C945F0826
:100BD0007C016B018A01FC0117821682838181FFEF
:100BE000C7C188248394912C8C0E9D1EF70193819C
:100BF000F60193FD859193FF81916F01882309F49C
:100C0000B3C1853239F493FD859193FF81916F01D2
:100C1000853229F4B70190E00E94D507E7CF712C07
:100C2000312C20E02032A8F48B3261F028F480329D
:100C300051F0833271F40BC08D3239F0803349F4B6
:100C4000216028C02260246025C0286023C0206164
:100C500021C027FD27C0382F30533A3078F426FFC3
:100C600006C0FAE07F9E300D1124732E13C08AE077
:100C7000389E300D1124332E20620CC08E3221F4A8
:100C800026FD72C1206406C08C3611F4206802C0B3
:100C9000883641F4F60193FD859193FF81916F01B0
:100CA0008111C0CF982F9554933018F09052933003
:100CB00028F40C5F1F4FFFE3F9830DC0833631F03A
:100CC000833771F0833509F05EC023C0F80180815D
:100CD00089830E5F1F4F66246394712C540115C0E5
:100CE0002801F2E04F0E511CF801A080B18026FFD0
:100CF00003C0672D70E002C06FEF7FEFC5012C8746
:100D00000E94CA073C0182012C856FE7262E222211
:100D100018C02801F2E04F0E511CF801A080B180EC
:100D200026FF03C0672D70E002C06FEF7FEFC501A3
:100D30002C870E94BF073C012C8550E8252E222AD3
:100D4000820123FC1CC006C0B70180E290E00E9433
:100D5000D5073A94832D90E068167906A8F30FC062
:100D6000F50127FC859127FE81915F01B70190E095
:100D70000E94D50731103A94F1E06F1A710861149E
:100D8000710471F7EEC0843611F0893641F5F8012F
:100D900027FF07C060817181828193810C5F1F4FA3
:100DA00008C060817181882777FD8095982F0E5F3C
:100DB0001F4F4FE6642E622297FF09C090958095E1
:100DC000709561957F4F8F4F9F4FF0E86F2A2AE013
:100DD00030E0A4010E940108A82EA81844C085375D
:100DE00031F43FEEB32EB2222AE030E024C099EF76
:100DF000B92EB2228F36B9F020F4883509F0B4C08C
:100E00000DC0803721F0883709F0AEC002C020E164
:100E1000B22AB4FE0BC084E0B82A08C024FF09C07F
:100E2000E6E0BE2A06C028E030E005C020E130E060
:100E300002C020E132E0F801B7FE07C06081718195
:100E4000828193810C5F1F4F06C06081718180E0B9
:100E500090E00E5F1F4FA4010E940108A82EA81861
:100E60008FE7682E6B2066FE0BC0362D3E7FA714E1
:100E700050F464FE0AC062FC08C0362D3E7E05C0F8
:100E8000BA2C362D03C0BA2C01C0B72C34FF0DC0CC
:100E9000FE01EA0DF11D8081803311F4397E09C015
:100EA00032FF06C0B394B39404C0832F867809F050
:100EB000B39433FD14C030FF0FC07A2CB31460F428
:100EC000730C7B18B32C08C0B70180E290E03C871C
:100ED0000E94D507B3943C85B314B0F304C0B31497
:100EE00010F43B1801C0312C34FF12C0B70180E36D
:100EF00090E03C870E94D5073C8532FF1EC031FF41
:100F000003C088E590E002C088E790E0B7010CC01C
:100F1000832F867891F031FD02C080E201C08BE220
:100F200037FD8DE2B70190E00E94D50706C0B701FA
:100F300080E390E00E94D5077A94A714C0F3AA94A6
:100F4000F401EA0DF11DB701808190E00E94D50700
:100F5000A110F5CF06C0B70180E290E00E94D5074E
:100F60003A943110F8CF42CEF7012681378102C082
:100F70002FEF3FEFC9012C96E2E10C947B08FC01B6
:100F80000590615070400110D8F7809590958E0FB4
:100F90009F1F0895FC016150704001900110D8F727
:100FA000809590958E0F9F1F08950F931F93CF9359
:100FB000DF938C01EB018B8181FD03C00FEF1FEFED
:100FC0001AC082FF0DC02E813F818C819D81281720
:100FD000390764F4E881F9810193F983E88306C055
:100FE000E885F985802F0995892B41F78E819F81AE
:100FF00001969F838E83C801DF91CF911F910F913E
:101000000895FA01AA27283051F1203181F1E8949E
:101010006F936E7F6E5F7F4F8F4F9F4FAF4FB1E0EB
:101020003ED0B4E03CD0670F781F891F9A1FA11DE6
:10103000680F791F8A1F911DA11D6A0F711D811DE7
:10104000911DA11D20D009F468943F912AE0269FAC
:1010500011243019305D3193DEF6CF010895462F0B
:101060004770405D4193B3E00FD0C9F7F6CF462FEC
:101070004F70405D4A3318F0495D31FD4052419355
:1010800002D0A9F7EACFB4E0A69597958795779512
:101090006795BA95C9F700976105710508959B0199
:1010A000AC010A2E06945795479537952795BA9522
:1010B000C9F7620F731F841F951FA01D08952F92FB
:1010C0003F924F925F926F927F928F929F92AF92D8
:1010D000BF92CF92DF92EF92FF920F931F93CF9325
:1010E000DF93CDB7DEB7CA1BDB0B0FB6F894DEBFBC
:1010F0000FBECDBF09942A88398848885F846E84E2
:101100007D848C849B84AA84B984C884DF80EE802B
:10111000FD800C811B81AA81B981CE0FD11D0FB634
:10112000F894DEBF0FBECDBFED010895F894FFCF58
:10113000F2F2F2F2F20102030405060708544845F0
:1011400052452049532044415441210A004441540E
:10115000413A20253032782025303278202530322F
:1011600078202530327820253032782025303278AA
:10117000202530327820253032780A00454E5F41F4
:10118000413A203078253032780A00454E5F525877
:10119000414444523A203078253032780A00534591
:1011A0005455505F41573A203078253032780A0044
:1011B00053455455505F524554523A2030782530AB
:1011C00032780A0052465F43483A20307825303260
:1011D000780A0052465F53455455503A20307825DE
:1011E0003032780A005374617475733A2030782570
:1011F0003032780A0054585F414444523A203078E3
:1012000025303278203078253032782030782530FB
:101210003278203078253032782030782530327896
:101220000A0052585F414444525F50303A203078AF
:1012300025303278203078253032782030782530CB
:101240003278203078253032782030782530327866
:101250000A0052585F414444525F50313A202530D1
:1012600032782025303278202530327820253032EF
:101270007820253032780A00426567696E0A00528C
:101280004543454956494E4720444154412E2E2E50
:021290000A0052
:00000001FF
