:100000000C9434000C9451000C9451000C94510049
:100010000C9451000C9451000C9451000C9451001C
:100020000C9451000C9451000C9451000C9451000C
:100030000C9451000C9451000C9451000C945100FC
:100040000C9451000C9451000C9451000C945100EC
:100050000C9451000C9451000C9451000C945100DC
:100060000C9451000C94510011241FBECFEFD4E02A
:10007000DEBFCDBF11E0A0E0B1E0EEE1FFE002C0E5
:1000800005900D92A43FB107D9F712E0A4EFB1E0BB
:1000900001C01D92A533B107E1F70E9403040C943F
:1000A0008D070C9400002D982FEF81EE94E02150E5
:1000B00080409040E1F700C000002D9A2FEF81EEC4
:1000C00094E0215080409040E1F700C000002D985E
:1000D00008952D982FEF80E792E0215080409040C6
:1000E000E1F700C000002D9A2FEF80E792E0215049
:1000F00080409040E1F700C000002D9808950F93D4
:100100001F93CF93DF93CDB7DEB760970FB6F89408
:10011000DEBF0FBECDBF87E00E941B011F928F93F1
:1001200085E091E09F938F9304EF11E01F930F936D
:100130000E94B504C8010E94E10382E00E941B01F5
:100140001F928F9385E191E09F938F931F930F935D
:100150000E94B504C8010E94E10346E0BE016F5F42
:100160007F4F8AE00E9460018E811F928F938D8164
:100170001F928F938C811F928F938B811F928F93ED
:100180008A811F928F9389811F928F9388E291E0D9
:100190009F938F931F930F930E94B504C8010E94F1
:1001A000E10346E0BE016F5F7F4F80E10E94600186
:1001B0008E811F928F938D811F928F938C811F92BE
:1001C0008F938B811F928F938A811F928F93898146
:1001D0001F928F9383E591E09F938F931F930F93CB
:1001E0000E94B5040FB6F894DEBF0FBECDBFC801A4
:1001F0000E94E10384E00E941B011F928F938BE712
:1002000091E09F938F931F930F930E94B504C801B1
:100210000E94E1030F900F900F900F900F900F909E
:1002200060960FB6F894DEBF0FBECDBFDF91CF91C1
:100230001F910F91089595E39A95F1F70000459865
:1002400095E39A95F1F700008F710E94810385E391
:100250008A95F1F700008FEF0E94810395E39A954C
:10026000F1F70000459A95E39A95F1F7000008959B
:10027000CF93DF931F92CDB7DEB795E39A95F1F751
:1002800000004598E5E3EA95F1F700008F71806280
:1002900069830E948103F5E3FA95F1F70000698113
:1002A000862F0E94810385E38A95F1F70000459A25
:1002B00095E39A95F1F700000F90DF91CF910895A3
:1002C0000F931F93CF93DF931F92CDB7DEB78B01B0
:1002D00095E39A95F1F700004598E5E3EA95F1F783
:1002E00000008F7149830E948103F5E3FA95F1F7CD
:1002F0000000498150E0B801C8010E949E0385E3D7
:100300008A95F1F70000459A95E39A95F1F7000078
:100310000F90DF91CF911F910F9108950F931F932D
:10032000CF93DF931F92CDB7DEB78B0195E39A95FC
:10033000F1F700004598E5E3EA95F1F700008F71C9
:10034000806249830E948103F5E3FA95F1F700008A
:10035000498150E0B801C8010E949E0385E38A9557
:10036000F1F70000459A95E39A95F1F700000F9098
:10037000DF91CF911F910F910895CF93DF93CDB768
:10038000DEB72A970FB6F894DEBF0FBECDBF85E368
:100390008A95F1F70000349885E38A95F1F700001B
:1003A00085E38A95F1F70000459A85E38A95F1F790
:1003B00000006FE384E00E94380161E082E00E9467
:1003C000380163E083E00E94380161E085E00E942B
:1003D000380167E286E00E94380185E0E0E0F1E064
:1003E000DE01169601900D928A95E1F745E0BE0177
:1003F0006A5F7F4F8AE00E948E0185E0E0E0F1E0D5
:10040000DE01119601900D928A95E1F745E0BE015B
:100410006F5F7F4F80E10E948E0168E081E10E9462
:10042000380160E487E00E94380160E287E00E94C2
:10043000380160E187E00E94380110923402809117
:100440003402886080933402809134028460809307
:1004500034028091340280668093340280913402A9
:1004600081608093340260913402626080E00E9477
:1004700038012A960FB6F894DEBF0FBECDBFDF91CC
:10048000CF91089585E38A95F1F70000459895E3AB
:100490009A95F1F700008FEF0E94810395E39A95FA
:1004A000F1F70000459A95E39A95F1F70000807402
:1004B00008950F931F93CF93DF931F92CDB7DEB7AD
:1004C0008C0185E38A95F1F700004598E5E3EA950C
:1004D000F1F7000081E669830E948103F5E3FA9554
:1004E000F1F70000498150E0B801C8010E949E0365
:1004F00085E38A95F1F70000459AE5E3EA95F1F77F
:10050000000060E487E00E943801F5E3FA95F1F716
:100510000000459885E38A95F1F7000081EE0E947E
:100520008103E5E3EA95F1F70000459AF5E3FA95D2
:10053000F1F700000F90DF91CF911F910F91089577
:1005400085E38A95F1F70000459895E39A95F1F7D0
:1005500000008FEF0E94810395E39A95F1F7000068
:10056000459A95E39A95F1F7000080710895EF920E
:10057000FF921F93CF93DF931F92CDB7DEB77C011D
:1005800025E32A95F1F70000459885E38A95F1F770
:10059000000081EE69830E94810395E39A95F1F74B
:1005A0000000459AE5E3EA95F1F70000F5E3FA95D6
:1005B000F1F70000459825E32A95F1F7000082EE57
:1005C0000E94810385E38A95F1F70000459A95E33F
:1005D0009A95F1F70000E5E3EA95F1F700004598F8
:1005E000F5E3FA95F1F7000080EA0E94810325E324
:1005F0002A95F1F70000498150E0B701C7010E9438
:100600009E0385E38A95F1F70000459A95E39A9554
:10061000F1F70000909134029E7F90933402609134
:10062000340280E00E943801E5E3EA95F1F700002A
:1006300060913402626080E00E943801FFEF21EE99
:1006400084E0F15020408040E1F700C0000095E3D5
:100650009A95F1F70000349AE5E3EA95F1F7000086
:1006600082E3E82EF12C87E00E941B0184FF07C083
:10067000682F606187E00E94380111E013C085FF98
:1006800007C0682F606287E00E94380110E00AC04E
:100690008FE39CE90197F1F700C0000091E0E91AAF
:1006A000F10809F7E5E3EA95F1F700003498F5E37E
:1006B000FA95F1F700009091340291609093340222
:1006C000609134026D7F80E00E94380125E32A9515
:1006D000F1F7000060913402626080E00E9438010E
:1006E0008FEF91EEE4E081509040E040E1F700C0F0
:1006F0000000812F0F90DF91CF911F91FF90EF901D
:100700000895982F28E030E080E051E097FF02C084
:10071000409A01C04098990F452F4A95F1F7429AA7
:10072000452F4A95F1F746B146954170880F842BC5
:1007300042982150310951F7409A0895CF93DF93A1
:10074000FC0180E020E030E0C1E022C09191A8E00F
:10075000B0E080E097FF02C0409A01C04098990F36
:10076000DC2FDA95F1F7429ADC2FDA95F1F7D6B162
:10077000D695D170880F8D2B4298119759F7611536
:10078000710521F0DB01A20FB31F8C932F5F3F4F48
:1007900024173507DCF2409ADF91CF9108959093AA
:1007A000C5008093C40088E18093C10086E08093F7
:1007B000C20008959091C00095FFFCCF8093C600C1
:1007C0000895EF92FF920F931F93CF93DF93EC0165
:1007D00009900020E9F72197C81BD90B8C017C01F7
:1007E00005C0F70181917F010E94DA03C701801BD8
:1007F000910B8C179D07ACF3DF91CF911F910F9157
:10080000FF90EF900895CF93DF93CDB7DEB7289791
:100810000FB6F894DEBF0FBECDBF2FEF8BE792E986
:10082000215080409040E1F700C000000E9453003A
:100830002FEF81EE94E0215080409040E1F700C01E
:1008400000000E9453002FEF81EE94E02150804081
:100850009040E1F700C000000E94530039983B9897
:10086000389A3A9A3C9A3D9A87E690E00E94CF03E4
:100870008FE891E00E94E1030E94BD012FEF80E725
:1008800092E0215080409040E1F700C000000E94BB
:100890007F0025E32A95F1F70000349A85E38A95D5
:1008A000F1F7000089EBE82E81E0F82E94EFC92ED5
:1008B00091E0D92E86E991E00E94E1030E9469004F
:1008C0009FEF23ED80E3915020408040E1F700C08E
:1008D00000000E944202882309F442C089EA91E0A4
:1008E0000E94E10368E0CE0101960E9459028885CA
:1008F0001F928F938F811F928F938E811F928F9360
:100900008D811F928F938C811F928F938B811F9269
:100910008F938A811F928F9389811F928F93FF9269
:10092000EF92DF92CF920E94B50484EF91E00E9493
:10093000E1030FB6F894DEBF0FBECDBF0BE010E0B1
:100940000BC00E9469009FEF20E782E09150204099
:100950008040E1F700C000000150110991F7AACFD3
:1009600088EE91E00E94E103A5CFA0E1B0E0EBEBBF
:10097000F4E00C9464070F89188D86E08C831A8349
:1009800009838FEF9FE79E838D83AE01455E5F4FA6
:10099000588B4F87698D7A8DCE0101960E94D904BC
:1009A000EF81F885E00FF11F10826096E4E00C946F
:1009B0008007ACE0B0E0EFEDF4E00C9456077C016A
:1009C0006B018A01FC0117821682838181FFC7C1F6
:1009D00088248394912C8C0E9D1EF7019381F6013F
:1009E00093FD859193FF81916F01882309F4B3C131
:1009F000853239F493FD859193FF81916F018532A2
:100A000029F4B70190E00E94CC06E7CF712C312C7D
:100A100020E02032A8F48B3261F028F4803251F0CB
:100A2000833271F40BC08D3239F0803349F4216088
:100A300028C02260246025C0286023C0206121C016
:100A400027FD27C0382F30533A3078F426FF06C0F0
:100A5000FAE07F9E300D1124732E13C08AE0389E79
:100A6000300D1124332E20620CC08E3221F426FD6D
:100A700072C1206406C08C3611F4206802C088362A
:100A800041F4F60193FD859193FF81916F018111EE
:100A9000C0CF982F9554933018F09052933028F48B
:100AA0000C5F1F4FFFE3F9830DC0833631F08337AE
:100AB00071F0833509F05EC023C0F801808189831D
:100AC0000E5F1F4F66246394712C540115C02801DA
:100AD000F2E04F0E511CF801A080B18026FF03C048
:100AE000672D70E002C06FEF7FEFC5012C870E9479
:100AF000C1063C0182012C856FE7262E222218C0F8
:100B00002801F2E04F0E511CF801A080B18026FFB1
:100B100003C0672D70E002C06FEF7FEFC5012C8727
:100B20000E94B6063C012C8550E8252E222A82011F
:100B300023FC1CC006C0B70180E290E00E94CC06F6
:100B40003A94832D90E068167906A8F30FC0F5015A
:100B500027FC859127FE81915F01B70190E00E94FB
:100B6000CC0631103A94F1E06F1A710861147104E7
:100B700071F7EEC0843611F0893641F5F80127FF90
:100B800007C060817181828193810C5F1F4F08C013
:100B900060817181882777FD8095982F0E5F1F4FA8
:100BA0004FE6642E622297FF09C09095809570955C
:100BB00061957F4F8F4F9F4FF0E86F2A2AE030E01A
:100BC000A4010E94F806A82EA81844C0853731F465
:100BD0003FEEB32EB2222AE030E024C099EFB92EC6
:100BE000B2228F36B9F020F4883509F0B4C00DC0B8
:100BF000803721F0883709F0AEC002C020E1B22A68
:100C0000B4FE0BC084E0B82A08C024FF09C0E6E0A7
:100C1000BE2A06C028E030E005C020E130E002C076
:100C200020E132E0F801B7FE07C060817181828166
:100C300093810C5F1F4F06C06081718180E090E05E
:100C40000E5F1F4FA4010E94F806A82EA8188FE778
:100C5000682E6B2066FE0BC0362D3E7FA71450F425
:100C600064FE0AC062FC08C0362D3E7E05C0BA2C68
:100C7000362D03C0BA2C01C0B72C34FF0DC0FE01C5
:100C8000EA0DF11D8081803311F4397E09C032FFF5
:100C900006C0B394B39404C0832F867809F0B3944C
:100CA00033FD14C030FF0FC07A2CB31460F4730C02
:100CB0007B18B32C08C0B70180E290E03C870E940B
:100CC000CC06B3943C85B314B0F304C0B31410F451
:100CD0003B1801C0312C34FF12C0B70180E390E013
:100CE0003C870E94CC063C8532FF1EC031FF03C00A
:100CF00088E590E002C088E790E0B7010CC0832F40
:100D0000867891F031FD02C080E201C08BE237FDB0
:100D10008DE2B70190E00E94CC0606C0B70180E3E7
:100D200090E00E94CC067A94A714C0F3AA94F40130
:100D3000EA0DF11DB701808190E00E94CC06A11060
:100D4000F5CF06C0B70180E290E00E94CC063A944D
:100D50003110F8CF42CEF7012681378102C02FEF44
:100D60003FEFC9012C96E2E10C947207FC0105905B
:100D7000615070400110D8F7809590958E0F9F1F9D
:100D80000895FC016150704001900110D8F78095E2
:100D900090958E0F9F1F08950F931F93CF93DF930E
:100DA0008C01EB018B8181FD03C00FEF1FEF1AC097
:100DB00082FF0DC02E813F818C819D8128173907CC
:100DC00064F4E881F9810193F983E88306C0E8853A
:100DD000F985802F0995892B41F78E819F81019696
:100DE0009F838E83C801DF91CF911F910F9108954A
:100DF000FA01AA27283051F1203181F1E8946F934C
:100E00006E7F6E5F7F4F8F4F9F4FAF4FB1E03ED0F1
:100E1000B4E03CD0670F781F891F9A1FA11D680F8F
:100E2000791F8A1F911DA11D6A0F711D811D911DC2
:100E3000A11D20D009F468943F912AE0269F112437
:100E40003019305D3193DEF6CF010895462F47709B
:100E5000405D4193B3E00FD0C9F7F6CF462F4F70F6
:100E6000405D4A3318F0495D31FD4052419302D054
:100E7000A9F7EACFB4E0A6959795879577956795FA
:100E8000BA95C9F700976105710508959B01AC01FA
:100E90000A2E06945795479537952795BA95C9F721
:100EA000620F731F841F951FA01D08952F923F92FC
:100EB0004F925F926F927F928F929F92AF92BF926A
:100EC000CF92DF92EF92FF920F931F93CF93DF9316
:100ED000CDB7DEB7CA1BDB0B0FB6F894DEBF0FBE73
:100EE000CDBF09942A88398848885F846E847D84C0
:100EF0008C849B84AA84B984C884DF80EE80FD80C2
:100F00000C811B81AA81B981CE0FD11D0FB6F89437
:0E0F1000DEBF0FBECDBFED010895F894FFCFF8
:100F1E00F1F1F1F1F15374617475733A2030782563
:100F2E003032780A00454E5F5258414444523A20BE
:100F3E003078253032780A0052585F414444525F6F
:100F4E0050303A2025303278202530327820253026
:100F5E0032782025303278202530327820253032F4
:100F6E00780A0054585F414444523A202530327872
:100F7E0020253032782025303278202530327820E6
:100F8E002530327820253032780A0053455455509A
:100F9E005F524554523A203078253032780A00425A
:100FAE006567696E0A00524543454956494E4720CA
:100FBE00444154412E2E2E0A005448455245204994
:100FCE00532044415441210A00444154413A2025C2
:100FDE003032782025303278202530327820253076
:100FEE003278202530327820253032782025303264
:100FFE007820253032780A004E4F20444154412E3D
:04100E002E2E0A0078
:00000001FF
