:100000000C9434000C9453000C9451000C94510047
:100010000C9451000C9451000C9451000C9451001C
:100020000C9451000C9451000C9451000C9451000C
:100030000C9451000C9451000C9451000C945100FC
:100040000C9451000C9451000C9451000C945100EC
:100050000C9451000C9451000C9451000C945100DC
:100060000C9451000C94510011241FBECFEFD4E02A
:10007000DEBFCDBF12E0A0E0B1E0E8EEF0E102C0EB
:1000800005900D92A436B107D9F712E0A4E6B2E0CC
:1000900001C01D92AD3AB107E1F70E9464050C94CE
:1000A00072080C9400001F920F920FB60F92112449
:1000B0001F932F933F934F935F936F937F938F93F0
:1000C0009F93AF93BF93CF93DF93EF93FF938EE014
:1000D00091E00E94420510910801C4EAD2E0412F4C
:1000E00050E060E070E0CE010E949305612FCE01E8
:1000F0000E94C2038091AB021F928F938091AA024B
:100100001F928F938091A9021F928F938091A802D2
:100110001F928F938091A7021F928F938091A602C6
:100120001F928F938091A5021F928F9388811F92B7
:100130008F938EE191E09F938F9384E692E09F935B
:100140008F930E949A0584E692E00E9442058DB743
:100150009EB744960FB6F8949EBF0FBE8DBFFF9119
:10016000EF91DF91CF91BF91AF919F918F917F914F
:100170006F915F914F913F912F911F910F900FBE03
:100180000F901F9018952D9A2FEF81EE94E021503B
:1001900080409040E1F700C000002D982FEF81EEE5
:1001A00094E0215080409040E1F700C000000895A5
:1001B0002D9A2FEF80E792E0215080409040E1F7A8
:1001C00000C000002D982FEF80E792E02150804082
:1001D0009040E1F700C000002D9A2FEF80E792E0F9
:1001E000215080409040E1F700C000002D982FEF93
:1001F00080E792E0215080409040E1F700C000008D
:100200002D9A2FEF80E792E0215080409040E1F757
:1002100000C000002D982FEF80E792E02150804031
:100220009040E1F700C0000008952D982FEF80E77F
:1002300092E0215080409040E1F700C000002D9AEC
:100240002FEF80E792E0215080409040E1F700C01E
:1002500000002D980895DF92EF92FF920F931F9365
:10026000CF93DF93CDB7DEB760970FB6F894DEBFBC
:100270000FBECDBF81E00E9474021F928F938DE468
:1002800091E09F938F9304E612E01F930F930E94D7
:100290009A05C8010E94420582E00E9474021F92E2
:1002A0008F938CE591E09F938F931F930F930E9400
:1002B0009A05C8010E94420583E00E9474021F92C1
:1002C0008F938FE691E09F938F931F930F930E94DC
:1002D0009A05C8010E94420584E00E9474021F92A0
:1002E0008F9381E891E09F938F931F930F930E94C8
:1002F0009A05C8010E94420585E00E9474021F927F
:100300008F9385E991E09F938F931F930F930E94A2
:100310009A05C8010E94420586E00E9474021F925D
:100320008F9384EA91E09F938F931F930F930E9482
:100330009A050FB6F894DEBF0FBECDBFC8010E946C
:10034000420587E00E9474021F928F9386EB91E032
:100350009F938F931F930F930E949A05C8010E9449
:10036000420580E1D82EEE24E394F12CEC0EFD1E24
:10037000F7018D2D11928A95E9F745E0B70180E1EB
:100380000E940E038D811F928F938C811F928F93F9
:100390008B811F928F938A811F928F9389811F92E5
:1003A0008F9386EC91E09F938F931F930F930E94FE
:1003B0009A05C8010E944205F7018D2D11928A9578
:1003C000E9F745E0B7018AE00E940E038D811F9294
:1003D0008F938C811F928F938B811F928F938A8131
:1003E0001F928F9389811F928F9383EF91E09F9348
:1003F0008F931F930F930E949A050FB6F894DEBF58
:100400000FBECDBFC8010E944205F7011192DA94D8
:10041000E9F745E0B7018BE00E940E038D811F9242
:100420008F938C811F928F938B811F928F938A81E0
:100430001F928F9389811F928F9383E292E09F9303
:100440008F931F930F930E949A05C8010E94420543
:100450000FB6F894DEBF0FBECDBF60960FB6F8940E
:10046000DEBF0FBECDBFDF91CF911F910F91FF90E7
:10047000EF90DF9008952FEF8BE792E921508040B5
:100480009040E1F700C000000E94C3002FEF81EE12
:1004900094E0215080409040E1F700C000000E94AD
:1004A000C3002FEF81EE94E0215080409040E1F7AF
:1004B00000C000000E94C30039985298389A3A9AB6
:1004C0003C9A3D9AE9E6F0E0808184608083E89A76
:1004D00087E690E00E94300589E492E00E944205A0
:1004E0000E94BD020C942B0195E39A95F1F7000050
:1004F000459895E39A95F1F700008F710E940605E3
:1005000085E38A95F1F700008FEF0E94060595E3D9
:100510009A95F1F70000459A95E39A95F1F7000056
:1005200008951F93CF93DF931F92CDB7DEB795E366
:100530009A95F1F700004598E5E3EA95F1F7000098
:100540008F71806269830E940605182FF5E3FA9582
:10055000F1F700006981862F0E94060585E38A95E0
:10056000F1F70000459A95E39A95F1F70000812F85
:100570000F90DF91CF911F910895F89460E080E093
:100580000E94910285E38A95F1F70000349885E393
:100590008A95F1F7000085E38A95F1F70000459A06
:1005A00085E38A95F1F7000061E081E00E94910205
:1005B0006FE384E00E94910261E082E00E94910278
:1005C00063E083E00E94910261E085E00E94910275
:1005D00066E286E00E94910268E081E10E94910259
:1005E00060E487E00E94910260E287E00E9491024D
:1005F00060E187E00E9491021092AC028091AC020F
:1006000088608093AC028091AC0284608093AC02DD
:100610006091AC02626080E00C949102EF92FF92D4
:100620001F93CF93DF931F92CDB7DEB77B0195E386
:100630009A95F1F700004598E5E3EA95F1F7000097
:100640008F7149830E940605182FF5E3FA95F1F79B
:100650000000498150E0B701C7010E94080585E309
:100660008A95F1F70000459A95E39A95F1F7000015
:10067000812F0F90DF91CF911F91FF90EF90089500
:10068000CF92DF92EF92FF920F931F93CF93DF935E
:10069000CDB7DEB7C82ED42EEDB6FEB68DB79EB759
:1006A000841B91090FB6F8949EBF0FBE8DBF0DB786
:1006B0001EB70F5F1F4F50E0C8010E948A0595E3E7
:1006C0009A95F1F70000459885E38A95F1F70000C7
:1006D0008C2D8F7180620E940605C82E95E39A9535
:1006E000F1F700004D2D50E0B801C8010E94080547
:1006F00085E38A95F1F70000459A95E39A95F1F71D
:1007000000008C2D0FB6F894FEBE0FBEEDBEDF913B
:10071000CF911F910F91FF90EF90DF90CF900895B0
:1007200045E0BC018AE00E9440038091AC028160F8
:100730008093AC026091AC02626080E00E94910202
:1007400085E38A95F1F70000349A85E38A95F1F7FD
:1007500000007894089585E38A95F1F700004598A4
:1007600095E39A95F1F700008FEF0E94060595E357
:100770009A95F1F70000459A95E39A95F1F70000F4
:10078000807408950F931F93CF93DF931F92CDB77B
:10079000DEB78C0185E38A95F1F700004598E5E323
:1007A000EA95F1F7000081E669830E940605F5E30A
:1007B000FA95F1F70000498150E0B801C8010E94A4
:1007C000080585E38A95F1F70000459AE5E3EA9587
:1007D000F1F7000060E487E00E949102F5E3FA95EA
:1007E000F1F70000459885E38A95F1F7000081EE66
:1007F0000E940605E5E3EA95F1F70000459AF5E366
:10080000FA95F1F700000F90DF91CF911F910F91B2
:100810000895FF920F931F93CF93DF93EC018B0109
:10082000F42E25E32A95F1F70000459885E38A9593
:10083000F1F7000081EE0E94060595E39A95F1F725
:100840000000459A25E32A95F1F7000085E38A9593
:10085000F1F70000459895E39A95F1F7000082EED4
:100860000E94060525E32A95F1F70000459A85E3E5
:100870008A95F1F7000060E387E00E94910261E051
:1008800081E00E94910245E0BE0180E10E944003A8
:1008900045E0BE018AE00E94400395E39A95F1F796
:1008A0000000459825E32A95F1F7000080EA0E94B0
:1008B000060585E38A95F1F700004F2D50E0B80159
:1008C000C8010E94080595E39A95F1F70000459A42
:1008D00025E32A95F1F700008091AC028E7F80938A
:1008E000AC026091AC02626080E00E9491028FEFE6
:1008F00091EE24E0815090402040E1F700C00000DC
:1009000085E38A95F1F70000349A95E39A95F1F71B
:100910000000C2E3D0E087E00E94740284FF06C0BA
:1009200060E187E00E94910281E011C085FF06C06E
:1009300060E287E00E94910280E009C08FE39CE9B9
:100940000197F1F700C00000219729F782E095E3B5
:100950009A95F1F70000349825E32A95F1F7000005
:10096000DF91CF911F910F91FF900895482F20E0C4
:1009700030E080E050E061E070E0E22FDA01022E2A
:1009800002C0B595A7950A94E2F7A0FF02C0409A6D
:1009900001C0409842980000319B07C0DB0102C0B3
:1009A000AA0FBB1FEA95E2F78A2B429A00002F5F3D
:1009B0003F4F2830310509F7429800000895482F2D
:1009C00027E030E080E050E061E070E0E22FDA0103
:1009D000022E02C0B595A7950A94E2F7A0FF02C0C7
:1009E000409A01C0409842980000319B07C0DB014B
:1009F00002C0AA0FBB1FEA95E2F78A2B429A0000B9
:100A00002150310918F74298000008950C94DF0432
:100A1000BF92CF92DF92EF92FF920F931F93CF93EB
:100A2000DF938C016B017A01B12C0BC0E601C20F80
:100A3000D31FF801E20FF31F80810E94DF04888337
:100A4000B3942B2D30E02E153F0584F3DF91CF9129
:100A50001F910F91FF90EF90DF90CF90BF9008957E
:100A60009093C5008093C40088E18093C10086E024
:100A70008093C20008959091C00095FFFCCF8093B1
:100A8000C6000895EF92FF920F931F93CF93DF93C9
:100A9000EC0109900020E9F72197C81BD90B8C01C4
:100AA0007C0105C0F70181917F010E943B05C701D0
:100AB000801B910B8C179D07ACF3DF91CF911F9199
:100AC0000F91FF90EF900895CF93DF9300D000D067
:100AD0001F92CDB7DEB70E943B0285E0E9E0F1E06E
:100AE000DE01119601900D928A95E1F7CE010196F3
:100AF0000E94900380E592E00E9442050E94150149
:100B00002FEF83ED90E3215080409040E1F700C04B
:100B10000000F0CFFB01DC0102C001900D924150BA
:100B20005040D8F70895DC0101C06D93415050400A
:100B3000E0F70895A0E1B0E0E0EAF5E00C944908A0
:100B40000F89188D86E08C831A8309838FEF9FE7C6
:100B50009E838D83AE01455E5F4F588B4F87698DB5
:100B60007A8DCE0101960E94BE05EF81F885E00FD7
:100B7000F11F10826096E4E00C946508ACE0B0E0F0
:100B8000E4ECF5E00C943B087C016B018A01FC016C
:100B900017821682838181FFC7C188248394912C98
:100BA0008C0E9D1EF7019381F60193FD859193FFB5
:100BB00081916F01882309F4B3C1853239F493FD23
:100BC000859193FF81916F01853229F4B70190E0FF
:100BD0000E94B107E7CF712C312C20E02032A8F41D
:100BE0008B3261F028F4803251F0833271F40BC003
:100BF0008D3239F0803349F4216028C022602460AE
:100C000025C0286023C0206121C027FD27C0382FC0
:100C100030533A3078F426FF06C0FAE07F9E300D5C
:100C20001124732E13C08AE0389E300D1124332E08
:100C300020620CC08E3221F426FD72C1206406C0F1
:100C40008C3611F4206802C0883641F4F60193FD19
:100C5000859193FF81916F018111C0CF982F955499
:100C6000933018F09052933028F40C5F1F4FFFE33D
:100C7000F9830DC0833631F0833771F0833509F085
:100C80005EC023C0F801808189830E5F1F4F6624F8
:100C90006394712C540115C02801F2E04F0E511CD1
:100CA000F801A080B18026FF03C0672D70E002C06C
:100CB0006FEF7FEFC5012C870E94A6073C018201E0
:100CC0002C856FE7262E222218C02801F2E04F0E55
:100CD000511CF801A080B18026FF03C0672D70E091
:100CE00002C06FEF7FEFC5012C870E949B073C017C
:100CF0002C8550E8252E222A820123FC1CC006C028
:100D0000B70180E290E00E94B1073A94832D90E011
:100D100068167906A8F30FC0F50127FC859127FE18
:100D200081915F01B70190E00E94B10731103A94C0
:100D3000F1E06F1A71086114710471F7EEC0843626
:100D400011F0893641F5F80127FF07C060817181F4
:100D5000828193810C5F1F4F08C060817181882759
:100D600077FD8095982F0E5F1F4F4FE6642E62220D
:100D700097FF09C090958095709561957F4F8F4F33
:100D80009F4FF0E86F2A2AE030E0A4010E94DD07BF
:100D9000A82EA81844C0853731F43FEEB32EB222F6
:100DA0002AE030E024C099EFB92EB2228F36B9F094
:100DB00020F4883509F0B4C00DC0803721F08837A1
:100DC00009F0AEC002C020E1B22AB4FE0BC084E03C
:100DD000B82A08C024FF09C0E6E0BE2A06C028E001
:100DE00030E005C020E130E002C020E132E0F8014F
:100DF000B7FE07C060817181828193810C5F1F4FB4
:100E000006C06081718180E090E00E5F1F4FA401F9
:100E10000E94DD07A82EA8188FE7682E6B2066FEBB
:100E20000BC0362D3E7FA71450F464FE0AC062FC4E
:100E300008C0362D3E7E05C0BA2C362D03C0BA2C14
:100E400001C0B72C34FF0DC0FE01EA0DF11D8081F9
:100E5000803311F4397E09C032FF06C0B394B394D5
:100E600004C0832F867809F0B39433FD14C030FF9B
:100E70000FC07A2CB31460F4730C7B18B32C08C029
:100E8000B70180E290E03C870E94B107B3943C85B3
:100E9000B314B0F304C0B31410F43B1801C0312CE8
:100EA00034FF12C0B70180E390E03C870E94B10795
:100EB0003C8532FF1EC031FF03C088E590E002C0D0
:100EC00088E790E0B7010CC0832F867891F031FD60
:100ED00002C080E201C08BE237FD8DE2B70190E0F5
:100EE0000E94B10706C0B70180E390E00E94B107FD
:100EF0007A94A714C0F3AA94F401EA0DF11DB70186
:100F0000808190E00E94B107A110F5CF06C0B70123
:100F100080E290E00E94B1073A943110F8CF42CEBF
:100F2000F7012681378102C02FEF3FEFC9012C96D0
:100F3000E2E10C945708FC010590615070400110EB
:100F4000D8F7809590958E0F9F1F0895FC016150F2
:100F5000704001900110D8F7809590958E0F9F1FDB
:100F600008950F931F93CF93DF938C01EB018B8137
:100F700081FD03C00FEF1FEF1AC082FF0DC02E814D
:100F80003F818C819D812817390764F4E881F981BC
:100F90000193F983E88306C0E885F985802F0995D8
:100FA000892B41F78E819F8101969F838E83C80193
:100FB000DF91CF911F910F910895FA01AA27283050
:100FC00051F1203181F1E8946F936E7F6E5F7F4F16
:100FD0008F4F9F4FAF4FB1E03ED0B4E03CD0670F92
:100FE000781F891F9A1FA11D680F791F8A1F911DE5
:100FF000A11D6A0F711D811D911DA11D20D009F435
:1010000068943F912AE0269F11243019305D319376
:10101000DEF6CF010895462F4770405D4193B3E05F
:101020000FD0C9F7F6CF462F4F70405D4A3318F006
:10103000495D31FD4052419302D0A9F7EACFB4E0B7
:10104000A6959795879577956795BA95C9F700976F
:101050006105710508959B01AC010A2E0694579510
:10106000479537952795BA95C9F7620F731F841F67
:10107000951FA01D08952F923F924F925F926F92FD
:101080007F928F929F92AF92BF92CF92DF92EF9218
:10109000FF920F931F93CF93DF93CDB7DEB7CA1B99
:1010A000DB0B0FB6F894DEBF0FBECDBF09942A88C4
:1010B000398848885F846E847D848C849B84AA846C
:1010C000B984C884DF80EE80FD800C811B81AA81F9
:1010D000B981CE0FD11D0FB6F894DEBF0FBECDBFC4
:0810E000ED010895F894FFCF23
:1010E800010203040506070808F2F2F2F2F2544876
:1010F8004552452049532044415441210A00444166
:1011080054413A2025303278202530327820253055
:101118003278202530327820253032782025303238
:1011280078202530327820253032780A00454E5F05
:1011380041413A203078253032780A00454E5F52D6
:1011480058414444523A203078253032780A0053C6
:10115800455455505F41573A203078253032780A47
:101168000053455455505F524554523A2030782523
:101178003032780A0052465F43483A2030782530AA
:1011880032780A0052465F53455455503A20307819
:10119800253032780A005374617475733A203078B8
:1011A800253032780A0054585F414444523A20307E
:1011B80078253032782030782530327820307825FC
:1011C8003032782030782530327820307825303227
:1011D800780A0052585F414444525F50303A2030F8
:1011E80078253032782030782530327820307825CC
:1011F80030327820307825303278203078253032F7
:10120800780A0052585F414444525F50313A2025D1
:101218003032782025303278202530327820253039
:10122800327820253032780A00426567696E0A00F4
:10123800524543454956494E4720444154412E2E74
:041248002E0A00006A
:00000001FF
